:100000000C9462000C948A000C948A000C948A0070
:100010000C948A000C948A000C948C000C948A0036
:100020000C948A000C948A000C948A000C948A0028
:100030000C948A000C948A000C948A000C948A0018
:100040000C94BD020C948A000C946A040C948A00EF
:100050000C948A000C948A000C948A000C948A00F8
:100060000C948A000C948A000000000024002700F1
:100070002A0000000000250028002B0000000000DE
:1000800023002600290004040404040404040202DA
:100090000202020203030303030301020408102007
:1000A0004080010204081020010204081020000012
:1000B0000007000201000003040600000000000029
:1000C0000000660511241FBECFEFD8E0DEBFCDBF14
:1000D00012E0A0E0B1E0EAE3FEE002C005900D927C
:1000E000AC36B107D9F713E0ACE6B2E001C01D921F
:1000F000AC30B107E1F710E0C4ECD0E004C02297C7
:10010000FE010E941707C23CD107C9F70E94A00553
:100110000C941B070C9400001F920F920FB60F92C5
:1001200011242F933F934F935F936F937F938F93FC
:100130009F93AF93BF93EF93FF9389EF92E060E0BB
:1001400071E00E94CD06FF91EF91BF91AF919F9119
:100150008F917F916F915F914F913F912F910F9070
:100160000FBE0F901F90189589EF92E06CE071E040
:100170000E94CD0684E00E941704892B39F489EF90
:1001800092E06BE171E00E94CD0608958DE060E0A1
:100190000E94BF0366E970E080E090E00E940503E2
:1001A00087E00E941704892B29F089E00E94170438
:1001B000892B61F48CE061E00E94BF0366E970E086
:1001C00080E090E00E940503A895EACF8CE060E013
:1001D0000E94BF0366E970E080E090E00E940503A2
:1001E0008DE060E00E94BF0389EF92E06EE371E072
:1001F0000E94CD06A895089589EF92E062E571E02E
:100200000E94CD068DE061E00E94BF0366E970E0C8
:1002100080E090E00E94050386E00E941704892B8D
:1002200029F088E00E941704892B89F485E00E9458
:100230001704892B61F48CE061E00E94BF036AE03F
:1002400070E080E090E00E940503A895E5CF8CE087
:1002500060E00E94BF0366E970E080E090E00E94E9
:1002600005038DE060E00E94BF0389EF92E060E645
:1002700071E00E94CD06A89508958AE060E00E9492
:10028000BF0366E970E080E090E00E9405038BE028
:1002900060E00E94BF0389EF92E066E771E00E9490
:1002A000CD06089586E00E941704892B31F088E07E
:1002B0000E941704892B09F064C089EF92E063E87B
:1002C00071E00E94CD0683E00E941704892B39F06B
:1002D00089EF92E06EE871E00E94CD064BC085E0A8
:1002E0000E941704892B41F40E94FC0064EF71E026
:1002F00080E090E00E94050385E00E941704892BAE
:10030000C9F189EF92E060EB71E00E94CD068BE0CD
:1003100061E00E94BF0366E970E080E090E00E9427
:1003200005030DC089E00E941704892B09F093C0D2
:1003300089EF92E060EC71E00E94CD0619C086E082
:100340000E941704892B29F088E00E941704892B4A
:1003500079F483E00E941704892B51F48AE061E06C
:100360000E94BF0387E00E941704892B09F3DACFAC
:100370000E943D0166E970E080E090E00E94050384
:10038000A89587E00E941704892B31F089E00E942C
:100390001704892B09F067C089EF92E064ED71E0E2
:1003A0000E94CD0684E00E941704892B39F089EF62
:1003B00092E060EE71E00E94CD0643C089EF92E0CA
:1003C00067E072E00E94CD068BE060E00E94BF0310
:1003D00066E970E080E090E00E9405030DC066E9E8
:1003E00070E080E090E00E94050389EF92E067E111
:1003F00072E00E94DE05A89587E00E941704892B11
:1004000029F089E00E941704892BA1F484E00E945E
:100410001704892B79F48AE061E00E94BF0366E942
:1004200070E080E090E00E94050384E00E941704E1
:10043000892BA9F20E943D0184E00E941704892BB8
:1004400011F00E94B40066E970E080E090E00E9444
:100450000503A895089566E970E080E090E00E94A9
:100460000503A8956CCF08950F931F93A895F89452
:10047000A895E0E6F0E080818861808388E680834B
:10048000789409EF12E0C80169E172E00E94CD069C
:10049000C80140E855E260E070E00E949B0483E000
:1004A00060E00E94990383E060E00E94BF0384E063
:1004B00060E00E94990384E060E00E94BF0385E051
:1004C00060E00E94990385E060E00E94BF0382E043
:1004D00060E00E94990382E060E00E94BF0386E032
:1004E00060E00E94990386E061E00E94BF0387E01C
:1004F00060E00E94990387E061E00E94BF0388E00A
:1005000060E00E94990388E061E00E94BF0389E0F7
:1005100060E00E94990389E061E00E94BF038AE0E5
:1005200061E00E9499038AE060E00E94BF038BE0D3
:1005300061E00E9499038BE060E00E94BF038CE0C1
:1005400061E00E9499038CE060E00E94BF038DE0AF
:1005500061E00E9499038DE060E00E94BF03C80142
:1005600066E272E00E94CD06C80160E472E00E947B
:10057000CD06A8951F910F9108951F920F920FB667
:100580000F9211242F933F938F939F93AF93BF9319
:100590008091700290917102A0917202B0917302E9
:1005A000309174020196A11DB11D232F2D5F2D37AF
:1005B00020F02D570196A11DB11D20937402809348
:1005C000700290937102A0937202B09373028091B3
:1005D0006C0290916D02A0916E02B0916F02019633
:1005E000A11DB11D80936C0290936D02A0936E02C9
:1005F000B0936F02BF91AF919F918F913F912F91D7
:100600000F900FBE0F901F9018959B01AC017FB704
:10061000F89480916C0290916D02A0916E02B0915D
:100620006F0266B5A89B05C06F3F19F00196A11D2A
:10063000B11D7FBFBA2FA92F982F8827860F911D34
:10064000A11DB11D62E0880F991FAA1FBB1F6A95EB
:10065000D1F7BC012DC0FFB7F89480916C02909146
:100660006D02A0916E02B0916F02E6B5A89B05C025
:10067000EF3F19F00196A11DB11DFFBFBA2FA92FA1
:10068000982F88278E0F911DA11DB11DE2E0880FC4
:10069000991FAA1FBB1FEA95D1F7861B970B885E8F
:1006A0009340C8F2215030404040504068517C4F48
:1006B000211531054105510571F60895789484B5E9
:1006C000826084BD84B5816084BD85B5826085BD4E
:1006D00085B5816085BDEEE6F0E080818160808334
:1006E000E1E8F0E010828081826080838081816017
:1006F0008083E0E8F0E0808181608083E1EBF0E0DE
:10070000808184608083E0EBF0E080818160808381
:10071000EAE7F0E08081846080838081826080836A
:100720008081816080838081806880831092C10095
:100730000895482F50E0CA0186569F4FFC0124912E
:100740004A575F4FFA0184918823C1F0E82FF0E007
:10075000EE0FFF1FE859FF4FA591B491662341F4B6
:100760009FB7F8948C91209582238C939FBF089516
:100770009FB7F8948C91822B8C939FBF0895482F3C
:1007800050E0CA0182559F4FFC012491CA01865650
:100790009F4FFC0134914A575F4FFA01949199237E
:1007A00009F444C0222351F1233071F0243028F49D
:1007B0002130A1F0223011F514C02630B1F02730DD
:1007C000C1F02430D9F404C0809180008F7703C039
:1007D000809180008F7D8093800010C084B58F77DA
:1007E00002C084B58F7D84BD09C08091B0008F7731
:1007F00003C08091B0008F7D8093B000E92FF0E0BE
:10080000EE0FFF1FEE58FF4FA591B491662341F400
:100810009FB7F8948C91309583238C939FBF089554
:100820009FB7F8948C91832B8C939FBF0895682F6A
:1008300070E0CB0182559F4FFC012491CB0186567D
:100840009F4FFC0144916A577F4FFB01949199237C
:1008500019F420E030E03CC0222351F1233071F044
:10086000243028F42130A1F0223011F514C02630B4
:10087000B1F02730C1F02430D9F404C08091800059
:100880008F7703C0809180008F7D8093800010C09F
:1008900084B58F7702C084B58F7D84BD09C08091F7
:1008A000B0008F7703C08091B0008F7D8093B0003F
:1008B000892F90E0880F991F84589F4FFC01A591C4
:1008C000B4918C9120E030E0842311F021E030E0FD
:1008D000C90108951F920F920FB60F9211242F9302
:1008E0003F934F938F939F93EF93FF934091C60055
:1008F000E091F502F091F60231969F012F7730706A
:1009000031978091F7029091F8022817390739F052
:10091000EB58FD4F40833093F6022093F502FF9190
:10092000EF919F918F914F913F912F910F900FBE1B
:100930000F901F901895CF93DF93EC019A01AB01B4
:10094000E885F985203081EE380780E0480780E0AF
:10095000580709F449C081E090E00A8802C0880F76
:10096000991F0A94E2F7808360E079E08DE390E0DC
:100970000E94FA062150304040405040CA01B9015F
:1009800022E030E040E050E00E94FA06EC81FD8178
:100990003083EE81FF812083EA85FB85208141E061
:1009A00050E0CA010E8402C0880F991F0A94E2F732
:1009B000282B2083EA85FB852081CA010F8402C091
:1009C000880F991F0A94E2F7282B2083EA85FB857C
:1009D0008081088802C0440F551F0A94E2F7842BD7
:1009E0008083DF91CF910895108220E130E0CECF57
:1009F000DC011296ED91FC911397E058FF4F219185
:100A0000319180819181281B390B2F773070C9017A
:100A10000895DC011296ED91FC911397EE57FF4F6C
:100A20002081318192918291E058F04082179307A2
:100A300019F42FEF3FEF05C0E20FF31F8081282F3D
:100A400030E0C9010895DC011296ED91FC911397F5
:100A5000DF01AE57BF4F2D913C911197E058FF4FEA
:100A600080819181E058F0408217930719F42FEFAD
:100A70003FEF0BC0E20FF31F80812F5F3F4F2F77B7
:100A800030702D933C93282F30E0C9010895DC018C
:100A90001296ED91FC911397EE57FF4F8081918153
:100AA000929382930895FC01A085B18521898C9150
:100AB00090E0022E02C0959587950A94E2F780FF98
:100AC000F6CF0484F585E02D608308958DE592E0EE
:100AD0009093FA028093F90285E792E09093FC02EA
:100AE0008093FB0285EC90E09093FE028093FD02E0
:100AF00084EC90E0909300038093FF0280EC90E000
:100B0000909302038093010381EC90E0909304039F
:100B10008093030386EC90E0909306038093050393
:100B200084E08093070383E08093080387E0809349
:100B3000090385E080930A0381E080930B03089505
:100B40000E945E030E9434020E945201FDCF0F9367
:100B50001F93CF93DF938C01EB0109C02196D8013D
:100B6000ED91FC910190F081E02DC801099568811B
:100B70006623A1F7DF91CF911F910F910895EF9216
:100B8000FF920F931F93CF93DF938C017B01EA01B8
:100B90000CC0D7016D917D01D801ED91FC910190C0
:100BA000F081E02DC80109952197209791F7DF91F9
:100BB000CF911F910F91FF90EF900895DC01ED917F
:100BC000FC910280F381E02D099508952F923F92C8
:100BD0004F925F926F927F928F929F92AF92BF924D
:100BE000CF92DF92EF92FF920F931F93DF93CF93F9
:100BF000CDB7DEB7A0970FB6F894DEBF0FBECDBF5E
:100C00001C016A017B01411551056105710549F41B
:100C100040E350E060E070E020E030E00E948006B9
:100C200056C0882499245401422E552466247724E2
:100C300001E010E00C0F1D1F080D191DC701B601C2
:100C4000A30192010E94D806F80160830894811CD8
:100C5000911CA11CB11CC701B601A30192010E9405
:100C6000D806C901DA016C017D01C114D104E10487
:100C7000F104F1F681E0E82EF12CEC0EFD1EE80CFB
:100C8000F91C3E010894611C711CD501C401019737
:100C9000A109B1096C01C818D90816C0F601EE0DFA
:100CA000FF1D40814A3010F4405D01C0495C55276A
:100CB00047FD5095652F752FC10120E030E00E945F
:100CC00080060894E108F1086E147F0439F7A096B5
:100CD0000FB6F894DEBF0FBECDBFCF91DF911F914D
:100CE0000F91FF90EF90DF90CF90BF90AF909F90CB
:100CF0008F907F906F905F904F903F902F900895CE
:100D0000EF92FF920F931F93CF93DF93EC017A0141
:100D10008B012115310541F4E881F9810190F081C1
:100D2000E02D642F09951BC02A303105B1F477FFFF
:100D300010C04DE250E060E070E020E030E00E9442
:100D4000800610950095F094E094E11CF11C011DC3
:100D5000111DCE01B801A7012AE00E94E605DF912E
:100D6000CF911F910F91FF90EF9008950F931F93D4
:100D70008C014DE050E060E070E020E030E00E9447
:100D80008006C8014AE050E060E070E020E030E01A
:100D90000E9480061F910F9108950F931F938C015D
:100DA0000E94DE05C8010E94B6061F910F910895AA
:100DB000A1E21A2EAA1BBB1BFD010DC0AA1FBB1F5F
:100DC000EE1FFF1FA217B307E407F50720F0A21BD1
:100DD000B30BE40BF50B661F771F881F991F1A943E
:100DE00069F760957095809590959B01AC01BD0168
:100DF000CF01089597FB092E05260ED057FD04D08C
:100E0000D7DF0AD0001C38F45095409530952195D5
:100E10003F4F4F4F5F4F0895F6F79095809570952F
:100E200061957F4F8F4F9F4F0895EE0FFF1F0590E5
:0A0E3000F491E02D0994F894FFCF2F
:100E3A00526573657474696E672E2E002A4C6F634F
:100E4A006B696E6720444F4F522A00444F4F52201D
:100E5A004953204E4F5420434C4F5345442C204372
:100E6A00414E54204C4F434B204E4F572100444F84
:100E7A004F52206973206E6F77204C4F434B454485
:100E8A0021002A556E6C6F636B20444F4F522A0023
:100E9A00444F4F52206973206E6F7720554E4C4F46
:100EAA00434B454421002A4D4F544F522053544F2F
:100EBA00502A002A434D445F4F50454E2A00454E62
:100ECA004453544F505F444F4F525F49535F4F5002
:100EDA00454E2C20646F206E6F7468696E672E0011
:100EEA004F50454E494E4720444F4F522E2E2E000A
:100EFA002A454D4552474543454E4359204252459E
:100F0A00414B2A002A434D445F434C4F53452A0024
:100F1A00454E4453544F505F444F4F525F49535FBD
:100F2A00434C4F5345442C204C4F434B494E47208A
:100F3A00444F4F522E2E00434C4F53494E472044A4
:100F4A004F4F522E2E2E002A00646F67206973209D
:100F5A00616C697665002A204155544F4D415449C8
:100F6A004320444F4F522053595354454D202A0091
:100F7A0056657273696F6E20312E332E31203036EA
:100F8A002F30392F3230313100000000005305A7CD
:0C0F9A0005BF05F8042305090547050004
:00000001FF
